:100000000C9434000C943E000C943E000C943E0082
:100010000C943E000C943E000C943E000C943E0068
:100020000C943E000C943E000C943E000C943E0058
:100030000C943E000C943E000C943E000C943E0048
:100040000C943E000C943E000C943E000C943E0038
:100050000C943E000C943E000C943E000C943E0028
:100060000C943E000C943E0011241FBECFEFD8E04C
:10007000DEBFCDBF0E9440000C945E000C940000D7
:100080008FEF84B92D9A80E090E04FEF50E020E0B0
:1000900030E02817390710F42D9A01C02D982F5FF2
:1000A0003F4F24363105A9F74150510941155105FB
:1000B00071F701968436910530F7E7CFF894FFCFBA
:00000001FF
