:100000000C9434000C943E000C943E000C943E0082
:100010000C943E000C943E000C943E000C943E0068
:100020000C943E000C943E000C943E000C943E0058
:100030000C943E000C943E000C943E000C943E0048
:100040000C943E000C943E000C943E000C943E0038
:100050000C943E000C943E000C943E000C943E0028
:100060000C943E000C943E0011241FBECFEFD8E04C
:10007000DEBFCDBF0E9440000C9468000C940000CD
:100080008FEF84B915B820E0243680F020E08FEFA0
:1000900090E034E62317D0F42D9A3150D9F7019728
:1000A0000097B9F72F5F243691F720E08FEF90E0AB
:1000B00030E0321710F42D9A01C02D983F5F34368E
:1000C000C1F701970097A1F72F5FDECF2D98E5CFFD
:0400D000F894FFCFD2
:00000001FF
